{
  "contractName": "Election",
  "abi": [
    {
      "inputs": [
        {
          "internalType": "string",
          "name": "_ballotOfficialName",
          "type": "string"
        },
        {
          "internalType": "string",
          "name": "_proposal",
          "type": "string"
        },
        {
          "internalType": "bytes32[]",
          "name": "_candidateNames",
          "type": "bytes32[]"
        },
        {
          "internalType": "address[]",
          "name": "_cAddress",
          "type": "address[]"
        }
      ],
      "stateMutability": "nonpayable",
      "type": "constructor"
    },
    {
      "anonymous": false,
      "inputs": [
        {
          "indexed": false,
          "internalType": "string",
          "name": "currentStateName",
          "type": "string"
        }
      ],
      "name": "electionState",
      "type": "event"
    },
    {
      "anonymous": false,
      "inputs": [
        {
          "indexed": false,
          "internalType": "string",
          "name": "name",
          "type": "string"
        }
      ],
      "name": "electionVoteUpdate",
      "type": "event"
    },
    {
      "inputs": [],
      "name": "ballotOfficialAddress",
      "outputs": [
        {
          "internalType": "address",
          "name": "",
          "type": "address"
        }
      ],
      "stateMutability": "view",
      "type": "function",
      "constant": true
    },
    {
      "inputs": [],
      "name": "ballotOfficialName",
      "outputs": [
        {
          "internalType": "string",
          "name": "",
          "type": "string"
        }
      ],
      "stateMutability": "view",
      "type": "function",
      "constant": true
    },
    {
      "inputs": [
        {
          "internalType": "uint256",
          "name": "",
          "type": "uint256"
        }
      ],
      "name": "candidateIdToAddress",
      "outputs": [
        {
          "internalType": "address",
          "name": "",
          "type": "address"
        }
      ],
      "stateMutability": "view",
      "type": "function",
      "constant": true
    },
    {
      "inputs": [],
      "name": "candidatesCount",
      "outputs": [
        {
          "internalType": "uint256",
          "name": "",
          "type": "uint256"
        }
      ],
      "stateMutability": "view",
      "type": "function",
      "constant": true
    },
    {
      "inputs": [],
      "name": "proposal",
      "outputs": [
        {
          "internalType": "string",
          "name": "",
          "type": "string"
        }
      ],
      "stateMutability": "view",
      "type": "function",
      "constant": true
    },
    {
      "inputs": [],
      "name": "state",
      "outputs": [
        {
          "internalType": "enum Election.State",
          "name": "",
          "type": "uint8"
        }
      ],
      "stateMutability": "view",
      "type": "function",
      "constant": true
    },
    {
      "inputs": [],
      "name": "totalVoter",
      "outputs": [
        {
          "internalType": "uint256",
          "name": "",
          "type": "uint256"
        }
      ],
      "stateMutability": "view",
      "type": "function",
      "constant": true
    },
    {
      "inputs": [],
      "name": "totalVotes",
      "outputs": [
        {
          "internalType": "uint256",
          "name": "",
          "type": "uint256"
        }
      ],
      "stateMutability": "view",
      "type": "function",
      "constant": true
    },
    {
      "inputs": [
        {
          "internalType": "address",
          "name": "_voterAddress",
          "type": "address"
        },
        {
          "internalType": "string",
          "name": "_voterName",
          "type": "string"
        }
      ],
      "name": "addVoter",
      "outputs": [],
      "stateMutability": "nonpayable",
      "type": "function"
    },
    {
      "inputs": [],
      "name": "startVote",
      "outputs": [],
      "stateMutability": "nonpayable",
      "type": "function"
    },
    {
      "inputs": [
        {
          "internalType": "uint256",
          "name": "_candidateId",
          "type": "uint256"
        },
        {
          "internalType": "string",
          "name": "_candidateName",
          "type": "string"
        }
      ],
      "name": "doVote",
      "outputs": [],
      "stateMutability": "nonpayable",
      "type": "function"
    },
    {
      "inputs": [],
      "name": "endVote",
      "outputs": [],
      "stateMutability": "nonpayable",
      "type": "function"
    },
    {
      "inputs": [],
      "name": "winnerName",
      "outputs": [
        {
          "internalType": "string",
          "name": "winnerName_",
          "type": "string"
        }
      ],
      "stateMutability": "view",
      "type": "function",
      "constant": true
    },
    {
      "inputs": [],
      "name": "winnerAddress",
      "outputs": [
        {
          "internalType": "address",
          "name": "winnerAddress_",
          "type": "address"
        }
      ],
      "stateMutability": "view",
      "type": "function",
      "constant": true
    },
    {
      "inputs": [],
      "name": "winnerId",
      "outputs": [
        {
          "internalType": "uint256",
          "name": "winnerId_",
          "type": "uint256"
        }
      ],
      "stateMutability": "view",
      "type": "function",
      "constant": true
    },
    {
      "inputs": [],
      "name": "myVoteStatus",
      "outputs": [
        {
          "internalType": "bool",
          "name": "status",
          "type": "bool"
        }
      ],
      "stateMutability": "view",
      "type": "function",
      "constant": true
    }
  ],
  "bytecode": "0x60806040526000600155600060025560006003553480156200002057600080fd5b50604051620022c7380380620022c7833981810160405281019062000046919062000789565b33600460006101000a81548173ffffffffffffffffffffffffffffffffffffffff021916908373ffffffffffffffffffffffffffffffffffffffff16021790555083600590805190602001906200009f92919062000493565b508260069080519060200190620000b892919062000493565b5060005b825181101562000155576000838281518110620000de57620000dd62000b95565b5b60200260200101519050600081604051602001620000fd9190620008b9565b60405160208183030381529060405290506200013d84848151811062000128576200012762000b95565b5b602002602001015182620001c560201b60201c565b505080806200014c9062000ab0565b915050620000bc565b506000600a60006101000a81548160ff021916908360028111156200017f576200017e62000b37565b5b02179055507ff0ce107ec698c580107b76d105703777cc84c54588994810fb2b4edd757d141b604051620001b390620008d6565b60405180910390a15050505062000c7a565b600460009054906101000a900473ffffffffffffffffffffffffffffffffffffffff1673ffffffffffffffffffffffffffffffffffffffff163373ffffffffffffffffffffffffffffffffffffffff16146200022057600080fd5b60016000815480929190620002359062000ab0565b91905055506200024462000524565b60015481600001818152505082816020019073ffffffffffffffffffffffffffffffffffffffff16908173ffffffffffffffffffffffffffffffffffffffff1681525050818160400181905250600081606001818152505080600760008573ffffffffffffffffffffffffffffffffffffffff1673ffffffffffffffffffffffffffffffffffffffff1681526020019081526020016000206000820151816000015560208201518160010160006101000a81548173ffffffffffffffffffffffffffffffffffffffff021916908373ffffffffffffffffffffffffffffffffffffffff16021790555060408201518160020190805190602001906200034b92919062000493565b50606082015181600301559050508260096000600154815260200190815260200160002060006101000a81548173ffffffffffffffffffffffffffffffffffffffff021916908373ffffffffffffffffffffffffffffffffffffffff1602179055506000604051806080016040528060015481526020018573ffffffffffffffffffffffffffffffffffffffff168152602001848152602001600081525090806001815401808255809150506001900390600052602060002090600402016000909190919091506000820151816000015560208201518160010160006101000a81548173ffffffffffffffffffffffffffffffffffffffff021916908373ffffffffffffffffffffffffffffffffffffffff16021790555060408201518160020190805190602001906200048192919062000493565b50606082015181600301555050505050565b828054620004a19062000a44565b90600052602060002090601f016020900481019282620004c5576000855562000511565b82601f10620004e057805160ff191683800117855562000511565b8280016001018555821562000511579182015b8281111562000510578251825591602001919060010190620004f3565b5b50905062000520919062000562565b5090565b604051806080016040528060008152602001600073ffffffffffffffffffffffffffffffffffffffff16815260200160608152602001600081525090565b5b808211156200057d57600081600090555060010162000563565b5090565b600062000598620005928462000921565b620008f8565b90508083825260208201905082856020860282011115620005be57620005bd62000bf8565b5b60005b85811015620005f25781620005d78882620006c2565b845260208401935060208301925050600181019050620005c1565b5050509392505050565b6000620006136200060d8462000950565b620008f8565b9050808382526020820190508285602086028201111562000639576200063862000bf8565b5b60005b858110156200066d57816200065288826200073f565b8452602084019350602083019250506001810190506200063c565b5050509392505050565b60006200068e62000688846200097f565b620008f8565b905082815260208101848484011115620006ad57620006ac62000bfd565b5b620006ba84828562000a0e565b509392505050565b600081519050620006d38162000c46565b92915050565b600082601f830112620006f157620006f062000bf3565b5b81516200070384826020860162000581565b91505092915050565b600082601f83011262000724576200072362000bf3565b5b815162000736848260208601620005fc565b91505092915050565b600081519050620007508162000c60565b92915050565b600082601f8301126200076e576200076d62000bf3565b5b81516200078084826020860162000677565b91505092915050565b60008060008060808587031215620007a657620007a562000c07565b5b600085015167ffffffffffffffff811115620007c757620007c662000c02565b5b620007d58782880162000756565b945050602085015167ffffffffffffffff811115620007f957620007f862000c02565b5b620008078782880162000756565b935050604085015167ffffffffffffffff8111156200082b576200082a62000c02565b5b62000839878288016200070c565b925050606085015167ffffffffffffffff8111156200085d576200085c62000c02565b5b6200086b87828801620006d9565b91505092959194509250565b6200088c6200088682620009da565b62000afe565b82525050565b6000620008a1600783620009b5565b9150620008ae8262000c1d565b602082019050919050565b6000620008c7828462000877565b60208201915081905092915050565b60006020820190508181036000830152620008f18162000892565b9050919050565b60006200090462000917565b905062000912828262000a7a565b919050565b6000604051905090565b600067ffffffffffffffff8211156200093f576200093e62000bc4565b5b602082029050602081019050919050565b600067ffffffffffffffff8211156200096e576200096d62000bc4565b5b602082029050602081019050919050565b600067ffffffffffffffff8211156200099d576200099c62000bc4565b5b620009a88262000c0c565b9050602081019050919050565b600082825260208201905092915050565b6000620009d382620009e4565b9050919050565b6000819050919050565b600073ffffffffffffffffffffffffffffffffffffffff82169050919050565b6000819050919050565b60005b8381101562000a2e57808201518184015260208101905062000a11565b8381111562000a3e576000848401525b50505050565b6000600282049050600182168062000a5d57607f821691505b6020821081141562000a745762000a7362000b66565b5b50919050565b62000a858262000c0c565b810181811067ffffffffffffffff8211171562000aa75762000aa662000bc4565b5b80604052505050565b600062000abd8262000a04565b91507fffffffffffffffffffffffffffffffffffffffffffffffffffffffffffffffff82141562000af35762000af262000b08565b5b600182019050919050565b6000819050919050565b7f4e487b7100000000000000000000000000000000000000000000000000000000600052601160045260246000fd5b7f4e487b7100000000000000000000000000000000000000000000000000000000600052602160045260246000fd5b7f4e487b7100000000000000000000000000000000000000000000000000000000600052602260045260246000fd5b7f4e487b7100000000000000000000000000000000000000000000000000000000600052603260045260246000fd5b7f4e487b7100000000000000000000000000000000000000000000000000000000600052604160045260246000fd5b600080fd5b600080fd5b600080fd5b600080fd5b600080fd5b6000601f19601f8301169050919050565b7f4372656174656400000000000000000000000000000000000000000000000000600082015250565b62000c5181620009c6565b811462000c5d57600080fd5b50565b62000c6b81620009da565b811462000c7757600080fd5b50565b61163d8062000c8a6000396000f3fe608060405234801561001057600080fd5b50600436106101005760003560e01c80639094974711610097578063d9e95a9811610066578063d9e95a9814610255578063de975d1814610271578063e2ba53f01461028f578063ed7a4e0b146102ad57610100565b806390949747146101f157806391e0d5931461020f578063b92239461461022d578063c19d93fb1461023757610100565b80634206d555116100d35780634206d5551461018d5780634c0a6af0146101ab5780636332abc9146101b5578063753ec103146101d357610100565b80630d15fd771461010557806315eec2cd146101235780631f91191c1461013f5780632d35a8a21461016f575b600080fd5b61010d6102cb565b60405161011a9190611203565b60405180910390f35b61013d60048036038101906101389190610fb3565b6102d1565b005b61015960048036038101906101549190610f86565b6105bf565b6040516101669190611110565b60405180910390f35b6101776105f2565b6040516101849190611203565b60405180910390f35b6101956105f8565b6040516101a2919061112b565b60405180910390f35b6101b361064f565b005b6101bd61074d565b6040516101ca9190611203565b60405180910390f35b6101db610753565b6040516101e89190611161565b60405180910390f35b6101f96107e1565b6040516102069190611110565b60405180910390f35b610217610807565b6040516102249190611203565b60405180910390f35b61023561087d565b005b61023f61097b565b60405161024c9190611146565b60405180910390f35b61026f600480360381019061026a9190610f2a565b61098e565b005b610279610ae9565b6040516102869190611161565b60405180910390f35b610297610b77565b6040516102a49190611161565b60405180910390f35b6102b5610c75565b6040516102c29190611110565b60405180910390f35b60035481565b60018060028111156102e6576102e561141a565b5b600a60009054906101000a900460ff1660028111156103085761030761141a565b5b1461031257600080fd5b60006009600085815260200190815260200160002060009054906101000a900473ffffffffffffffffffffffffffffffffffffffff1690506000600760008373ffffffffffffffffffffffffffffffffffffffff1673ffffffffffffffffffffffffffffffffffffffff1681526020019081526020016000206000015414156103d0576040517f08c379a00000000000000000000000000000000000000000000000000000000081526004016103c7906111e3565b60405180910390fd5b600860003373ffffffffffffffffffffffffffffffffffffffff1673ffffffffffffffffffffffffffffffffffffffff16815260200190815260200160002060010160009054906101000a900460ff1615610460576040517f08c379a0000000000000000000000000000000000000000000000000000000008152600401610457906111a3565b60405180910390fd5b6000600860003373ffffffffffffffffffffffffffffffffffffffff1673ffffffffffffffffffffffffffffffffffffffff16815260200190815260200160002060000180546104af9061133f565b90501461058257600760008273ffffffffffffffffffffffffffffffffffffffff1673ffffffffffffffffffffffffffffffffffffffff1681526020019081526020016000206003016000815480929190610509906113a2565b91905055506001600860003373ffffffffffffffffffffffffffffffffffffffff1673ffffffffffffffffffffffffffffffffffffffff16815260200190815260200160002060010160006101000a81548160ff0219169083151502179055506003600081548092919061057c906113a2565b91905055505b7fcbc2564db2c306c29c9359ee01a887d712724b8230471b19dd0cfb02b1e04e83836040516105b19190611161565b60405180910390a150505050565b60096020528060005260406000206000915054906101000a900473ffffffffffffffffffffffffffffffffffffffff1681565b60015481565b6000600860003373ffffffffffffffffffffffffffffffffffffffff1673ffffffffffffffffffffffffffffffffffffffff16815260200190815260200160002060010160009054906101000a900460ff16905090565b60008060028111156106645761066361141a565b5b600a60009054906101000a900460ff1660028111156106865761068561141a565b5b1461069057600080fd5b600460009054906101000a900473ffffffffffffffffffffffffffffffffffffffff1673ffffffffffffffffffffffffffffffffffffffff163373ffffffffffffffffffffffffffffffffffffffff16146106ea57600080fd5b6001600a60006101000a81548160ff021916908360028111156107105761070f61141a565b5b02179055507ff0ce107ec698c580107b76d105703777cc84c54588994810fb2b4edd757d141b60405161074290611183565b60405180910390a150565b60025481565b600680546107609061133f565b80601f016020809104026020016040519081016040528092919081815260200182805461078c9061133f565b80156107d95780601f106107ae576101008083540402835291602001916107d9565b820191906000526020600020905b8154815290600101906020018083116107bc57829003601f168201915b505050505081565b600460009054906101000a900473ffffffffffffffffffffffffffffffffffffffff1681565b6000600280600281111561081e5761081d61141a565b5b600a60009054906101000a900460ff1660028111156108405761083f61141a565b5b1461084a57600080fd5b6000610854610d0b565b8154811061086557610864611478565b5b90600052602060002090600402016000015491505090565b60018060028111156108925761089161141a565b5b600a60009054906101000a900460ff1660028111156108b4576108b361141a565b5b146108be57600080fd5b600460009054906101000a900473ffffffffffffffffffffffffffffffffffffffff1673ffffffffffffffffffffffffffffffffffffffff163373ffffffffffffffffffffffffffffffffffffffff161461091857600080fd5b6002600a60006101000a81548160ff0219169083600281111561093e5761093d61141a565b5b02179055507ff0ce107ec698c580107b76d105703777cc84c54588994810fb2b4edd757d141b604051610970906111c3565b60405180910390a150565b600a60009054906101000a900460ff1681565b60008060028111156109a3576109a261141a565b5b600a60009054906101000a900460ff1660028111156109c5576109c461141a565b5b146109cf57600080fd5b600460009054906101000a900473ffffffffffffffffffffffffffffffffffffffff1673ffffffffffffffffffffffffffffffffffffffff163373ffffffffffffffffffffffffffffffffffffffff1614610a2957600080fd5b610a31610dd1565b828160000181905250600081602001901515908115158152505080600860008673ffffffffffffffffffffffffffffffffffffffff1673ffffffffffffffffffffffffffffffffffffffff1681526020019081526020016000206000820151816000019080519060200190610aa7929190610ded565b5060208201518160010160006101000a81548160ff02191690831515021790555090505060026000815480929190610ade906113a2565b919050555050505050565b60058054610af69061133f565b80601f0160208091040260200160405190810160405280929190818152602001828054610b229061133f565b8015610b6f5780601f10610b4457610100808354040283529160200191610b6f565b820191906000526020600020905b815481529060010190602001808311610b5257829003601f168201915b505050505081565b60606002806002811115610b8e57610b8d61141a565b5b600a60009054906101000a900460ff166002811115610bb057610baf61141a565b5b14610bba57600080fd5b6000610bc4610d0b565b81548110610bd557610bd4611478565b5b90600052602060002090600402016002018054610bf19061133f565b80601f0160208091040260200160405190810160405280929190818152602001828054610c1d9061133f565b8015610c6a5780601f10610c3f57610100808354040283529160200191610c6a565b820191906000526020600020905b815481529060010190602001808311610c4d57829003601f168201915b505050505091505090565b60006002806002811115610c8c57610c8b61141a565b5b600a60009054906101000a900460ff166002811115610cae57610cad61141a565b5b14610cb857600080fd5b6000610cc2610d0b565b81548110610cd357610cd2611478565b5b906000526020600020906004020160010160009054906101000a900473ffffffffffffffffffffffffffffffffffffffff1691505090565b60006002806002811115610d2257610d2161141a565b5b600a60009054906101000a900460ff166002811115610d4457610d4361141a565b5b14610d4e57600080fd5b6000805b600080549050811015610dcb578160008281548110610d7457610d73611478565b5b9060005260206000209060040201600301541115610db85760008181548110610da057610d9f611478565b5b90600052602060002090600402016003015491508093505b8080610dc3906113a2565b915050610d52565b50505090565b6040518060400160405280606081526020016000151581525090565b828054610df99061133f565b90600052602060002090601f016020900481019282610e1b5760008555610e62565b82601f10610e3457805160ff1916838001178555610e62565b82800160010185558215610e62579182015b82811115610e61578251825591602001919060010190610e46565b5b509050610e6f9190610e73565b5090565b5b80821115610e8c576000816000905550600101610e74565b5090565b6000610ea3610e9e84611243565b61121e565b905082815260208101848484011115610ebf57610ebe6114db565b5b610eca8482856112fd565b509392505050565b600081359050610ee1816115d9565b92915050565b600082601f830112610efc57610efb6114d6565b5b8135610f0c848260208601610e90565b91505092915050565b600081359050610f24816115f0565b92915050565b60008060408385031215610f4157610f406114e5565b5b6000610f4f85828601610ed2565b925050602083013567ffffffffffffffff811115610f7057610f6f6114e0565b5b610f7c85828601610ee7565b9150509250929050565b600060208284031215610f9c57610f9b6114e5565b5b6000610faa84828501610f15565b91505092915050565b60008060408385031215610fca57610fc96114e5565b5b6000610fd885828601610f15565b925050602083013567ffffffffffffffff811115610ff957610ff86114e0565b5b61100585828601610ee7565b9150509250929050565b61101881611290565b82525050565b611027816112a2565b82525050565b611036816112eb565b82525050565b600061104782611274565b611051818561127f565b935061106181856020860161130c565b61106a816114ea565b840191505092915050565b600061108260068361127f565b915061108d826114fb565b602082019050919050565b60006110a5602a8361127f565b91506110b082611524565b604082019050919050565b60006110c860058361127f565b91506110d382611573565b602082019050919050565b60006110eb601c8361127f565b91506110f68261159c565b602082019050919050565b61110a816112e1565b82525050565b6000602082019050611125600083018461100f565b92915050565b6000602082019050611140600083018461101e565b92915050565b600060208201905061115b600083018461102d565b92915050565b6000602082019050818103600083015261117b818461103c565b905092915050565b6000602082019050818103600083015261119c81611075565b9050919050565b600060208201905081810360008301526111bc81611098565b9050919050565b600060208201905081810360008301526111dc816110bb565b9050919050565b600060208201905081810360008301526111fc816110de565b9050919050565b60006020820190506112186000830184611101565b92915050565b6000611228611239565b90506112348282611371565b919050565b6000604051905090565b600067ffffffffffffffff82111561125e5761125d6114a7565b5b611267826114ea565b9050602081019050919050565b600081519050919050565b600082825260208201905092915050565b600061129b826112c1565b9050919050565b60008115159050919050565b60008190506112bc826115c5565b919050565b600073ffffffffffffffffffffffffffffffffffffffff82169050919050565b6000819050919050565b60006112f6826112ae565b9050919050565b82818337600083830152505050565b60005b8381101561132a57808201518184015260208101905061130f565b83811115611339576000848401525b50505050565b6000600282049050600182168061135757607f821691505b6020821081141561136b5761136a611449565b5b50919050565b61137a826114ea565b810181811067ffffffffffffffff82111715611399576113986114a7565b5b80604052505050565b60006113ad826112e1565b91507fffffffffffffffffffffffffffffffffffffffffffffffffffffffffffffffff8214156113e0576113df6113eb565b5b600182019050919050565b7f4e487b7100000000000000000000000000000000000000000000000000000000600052601160045260246000fd5b7f4e487b7100000000000000000000000000000000000000000000000000000000600052602160045260246000fd5b7f4e487b7100000000000000000000000000000000000000000000000000000000600052602260045260246000fd5b7f4e487b7100000000000000000000000000000000000000000000000000000000600052603260045260246000fd5b7f4e487b7100000000000000000000000000000000000000000000000000000000600052604160045260246000fd5b600080fd5b600080fd5b600080fd5b600080fd5b6000601f19601f8301169050919050565b7f566f74696e670000000000000000000000000000000000000000000000000000600082015250565b7f596f75206861766520616c726561647920766f74656420666f7220746865207060008201527f61727469636970616e7400000000000000000000000000000000000000000000602082015250565b7f456e646564000000000000000000000000000000000000000000000000000000600082015250565b7f546869732063616e64696461746520646f65736e277420657869737400000000600082015250565b600381106115d6576115d561141a565b5b50565b6115e281611290565b81146115ed57600080fd5b50565b6115f9816112e1565b811461160457600080fd5b5056fea2646970667358221220a615d7495e7a743983058b3dc581db4ce40e643fc44221a7e417d9e99a07787664736f6c63430008070033",
  "immutableReferences": {},
  "source": "// SPDX-License-Identifier: MIT\n\npragma solidity ^0.8.7;\n\ncontract Election{\n\n    struct Candidate{\n        uint id;\n        address myAddress;\n        string name;\n        uint voteCount;\n    }\n\n    struct Voter{\n        string voterName;\n        bool voted;\n    }\n\n    Candidate[] private candidates; \n\n    uint public candidatesCount=0;\n    uint public totalVoter=0;\n    uint public totalVotes=0;\n\n    address public ballotOfficialAddress;\n    string public ballotOfficialName;\n    string public proposal;\n\n    mapping(address => Candidate) private candidateRegistry;\n    mapping(address => Voter) private voterRegistry;\n    mapping(uint => address) public candidateIdToAddress;\n\n    enum State { Created, Voting, Ended }\n    State public state;\n\n    modifier onlyOfficial(){\n        require(msg.sender == ballotOfficialAddress);\n        _;\n    }\n\n    modifier inState(State _state){\n        require(state == _state);\n        _;\n    }\n\n     event electionVoteUpdate(\n        string name\n    );\n\n    event electionState(\n        string currentStateName\n    );\n\n    constructor(\n        string memory _ballotOfficialName,\n        string memory _proposal,\n        bytes32[] memory _candidateNames,\n        address[] memory _cAddress\n        )\n    {\n        ballotOfficialAddress = msg.sender;\n        ballotOfficialName = _ballotOfficialName;\n        proposal = _proposal;\n\n         for (uint i = 0; i < _candidateNames.length; i++) {\n             bytes32 foo = _candidateNames[i];\n             string memory bar = string(abi.encodePacked(foo));\n\n            addCandidate(_cAddress[i],bar);\n        }\n\n        state = State.Created;\n        emit electionState(\"Created\");\n    }\n\n    function addCandidate(address _candidateAddress, string memory _name) \n        private\n        onlyOfficial\n    {\n        candidatesCount++;\n        Candidate memory c;\n        c.id=candidatesCount;\n        c.myAddress=_candidateAddress;\n        c.name=_name;\n        c.voteCount=0;\n        candidateRegistry[_candidateAddress] = c;\n        candidateIdToAddress[candidatesCount] = _candidateAddress;\n\n         candidates.push(Candidate({\n                id:candidatesCount,\n                myAddress:_candidateAddress,\n                name: _name,\n                voteCount: 0\n            }));\n    }\n\n    function addVoter(address _voterAddress,string memory _voterName)\n        public \n        inState(State.Created)\n        onlyOfficial\n    {\n        Voter memory v;\n        v.voterName = _voterName;\n        v.voted = false;\n\n        voterRegistry[_voterAddress] = v;\n        totalVoter++;\n    }\n\n    function startVote()\n        public\n        inState(State.Created)\n        onlyOfficial\n    {\n        state= State.Voting;\n        emit electionState(\"Voting\");\n\n    }\n\n\n    function doVote(uint  _candidateId,string memory _candidateName) \n        public\n        inState(State.Voting)\n    {\n\n        address candidateAddress;\n        candidateAddress= candidateIdToAddress[_candidateId];\n\n        require(candidateRegistry[candidateAddress].id !=0 ,\"This candidate doesn't exist\");\n        require(!voterRegistry[msg.sender].voted,\"You have already voted for the participant\");\n\n        if(bytes(voterRegistry[msg.sender].voterName).length != 0){\n            candidateRegistry[candidateAddress].voteCount++;\n            voterRegistry[msg.sender].voted = true;\n            totalVotes++;\n        }\n\n        emit electionVoteUpdate(_candidateName);\n    }\n\n    function endVote()\n        public\n        inState(State.Voting)\n        onlyOfficial\n    {\n        state= State.Ended;\n        emit electionState(\"Ended\");\n    }\n\n    function winnerIndex()\n        private view\n        inState(State.Ended)\n        returns (uint winningProposal)\n    {\n        uint winningVoteCount = 0;\n        for (uint i = 0; i < candidates.length; i++) {\n            if (candidates[i].voteCount > winningVoteCount) {\n                winningVoteCount = candidates[i].voteCount;\n                winningProposal = i ;\n            }\n        }\n    }\n\n    function winnerName()\n        public\n        view\n        inState(State.Ended)\n        returns (string memory winnerName_)\n    {\n        winnerName_ = candidates[winnerIndex()].name;\n    }\n\n    function winnerAddress()\n        public\n        view\n        inState(State.Ended)\n        returns (address winnerAddress_)\n    {\n        winnerAddress_= candidates[winnerIndex()].myAddress;\n    }\n\n    function winnerId()\n        public\n        view\n        inState(State.Ended)\n        returns (uint winnerId_)\n    {\n        winnerId_= candidates[winnerIndex()].id;\n    }\n\n    function myVoteStatus()\n        public\n        view\n        returns (bool status)\n    {\n        status = voterRegistry[msg.sender].voted;\n    }\n}\n",
  "sourcePath": "/home/yash/Desktop/Pollice/contracts/Election.sol",
  "compiler": {
    "name": "solc",
    "version": "0.8.7+commit.e28d00a7.Emscripten.clang"
  },
  "schemaVersion": "3.4.4",
  "updatedAt": "2022-01-28T07:50:32.690Z",
  "networkType": "ethereum",
  "devdoc": {
    "kind": "dev",
    "methods": {},
    "version": 1
  },
  "userdoc": {
    "kind": "user",
    "methods": {},
    "version": 1
  }
}